:020000040800F2
:1000000048070020CD01000829050008DB0300088F
:1000100025050008A9020008AB0700080000000041
:100020000000000000000000000000004D05000876
:10003000AD020008000000002B0500086106000862
:10004000E7010008E7010008E7010008E7010008F0
:10005000E7010008E7010008E7010008E7010008E0
:10006000E7010008E7010008E7010008E7010008D0
:10007000E7010008E7010008E7010008E7010008C0
:10008000E7010008E7010008E7010008E7010008B0
:10009000E7010008E7010008E7010008E7010008A0
:1000A000E7010008E7010008E7010008E701000890
:1000B000E7010008E7010008E7010008E701000880
:1000C000E7010008E7010008E7010008E701000870
:1000D000E7010008C5060008E7010008E70100087D
:1000E000E7010008E7010008E7010008E701000850
:1000F000E7010008E7010008E7010008E701000840
:10010000E7010008E7010008E7010008E70100082F
:10011000E7010008E7010008E7010008E70100081F
:10012000E7010008E7010008E7010008E70100080F
:1001300000F002F800F03AF80AA090E8000C8244BF
:100140008344AAF10107DA4501D100F02FF8AFF29C
:10015000090EBAE80F0013F0010F18BFFB1A43F0A5
:10016000010318477C0700009C070000103A24BFD9
:1001700078C878C1FAD8520724BF30C830C144BF0C
:1001800004680C607047000000230024002500264E
:10019000103A28BF78C1FBD8520728BF30C148BFEA
:1001A0000B6070471FB51FBD10B510BD00F033F8D0
:1001B0001146FFF7F7FF00F045FB00F051F803B4DC
:1001C000FFF7F2FF03BC00F0F2FA00000948804795
:1001D00009480047FEE7FEE7FEE7FEE7FEE7FEE729
:1001E000FEE7FEE7FEE7FEE704480549054A064B41
:1001F0007047000065060008310100084801002032
:10020000480700204803002048030020704770473B
:10021000704770477047754600F028F8AE460500F5
:100220006946534620F00700854618B020B5FFF711
:10023000DBFFBDE820404FF000064FF000074FF015
:1002400000084FF0000B21F00701AC46ACE8C009F4
:10025000ACE8C009ACE8C009ACE8C0098D467047FD
:100260000446AFF300802046FFF7A9FF004870471F
:10027000E800002008B50121082000F057F91020FF
:100280008DF803000001ADF8000003208DF8020096
:100290006946044800F00BF84FF48071014800F003
:1002A0009AF808BD000C014000BFFEE770472DE939
:1002B000F0410246002500260020002300240027EC
:1002C00091F803C00CF00F0591F803C00CF0100C6E
:1002D000BCF1000F03D091F802C04CEA050591F87B
:1002E00000C0BCF1000F31D0146800202BE04FF0AB
:1002F000010C0CFA00F3B1F800C00CEA03069E42B0
:1003000020D183004FF00F0C0CFA03F7BC4305FA21
:1003100003FC4CEA040491F803C0BCF1280F06D199
:100320004FF0010C0CFA00FCC2F814C00AE091F87E
:1003300003C0BCF1480F05D14FF0010C0CFA00FCD2
:10034000C2F810C0401C0828D1D31460B1F800C016
:10035000BCF1FF0F34DD546800202EE000F1080CE2
:100360004FF0010808FA0CF3B1F800C00CEA0306DC
:100370009E4221D183004FF00F0C0CFA03F7BC43CF
:1003800005FA03FC4CEA040491F803C0BCF1280F01
:1003900005D100F1080C08FA0CF8C2F8148091F8A5
:1003A00003C0BCF1480F07D100F1080C4FF0010861
:1003B00008FA0CF8C2F81080401C0828CED354600C
:1003C000BDE8F0810246002093680B400BB101208C
:1003D00000E0002070470161704700BFFEE70000A9
:1003E00008B50121442000F0A1F848208DF8030051
:1003F0001820ADF8000069460648FFF758FF28208E
:100400008DF803000120ADF8000069460248FFF7AF
:100410004EFF08BD001801400008014070B50446B9
:1004200014B101202849087027480078A8B310218A
:100430002648FFF7C7FF08B9012500E0002508217D
:100440002248FFF7BFFF08B9012000E00020054364
:1004500001211F48FFF7B6FF012800D100E000206E
:100460000543D5B10A2000F0C7F9002016490870ED
:1004700010211648FFF7A6FF08B9012070BD08211A
:100480001248FFF79FFF08B90220F7E70121104843
:10049000FFF798FFB0B10320F0E7FFE710210B480A
:1004A000FFF790FF01280DD108210848FFF78AFFC8
:1004B000012807D101210648FFF784FF10B9012068
:1004C000014908700020D9E71E00002000180140F3
:1004D0000008014008B50121082000F027F801219B
:1004E000402000F023F810208DF803002020ADF804
:1004F000000003208DF8020069460848FFF7D7FE88
:1005000020210648FFF767FF69460548FFF7CFFE41
:1005100020210348FFF75FFF08BD000000180140DD
:10052000000C014000BFFEE77047704729B1064A42
:1005300092690243044B9A6104E0034A9269824340
:10054000014B9A617047000000100240704710B5DF
:1005500000F002F810BD00000CB5002001900090E2
:100560003348006840F480303149086000BF3048AB
:10057000006800F4003000900198401C0190009841
:1005800018B90198B0F5A06FF1D12948006800F4BE
:10059000003010B10120009001E000200090009890
:1005A000012843D12348006840F010002149086029
:1005B0000846006820F0030008600846006840F024
:1005C000020008601A4840681949486008464068B7
:1005D00048600846406840F48060486008464068CB
:1005E00020F47C1048600846406840F4E8104860F9
:1005F0000846006840F08070086000BF0C48006842
:1006000000F000700028F9D00948406820F003008D
:10061000074948600846406840F00200486000BF53
:100620000348406800F00C000828F9D10CBD000018
:100630000010024000200240042808D14FF0E021C1
:10064000096941F004014FF0E022116107E04FF029
:10065000E021096921F004014FF0E02211617047A7
:100660007047000010B51348006840F001001149C0
:10067000086008464068104908400E49486008462E
:1006800000680E4908400B4908600846006820F4DD
:10069000802008600846406820F4FE0048604FF45F
:1006A0001F008860FFF753FF4FF0006004490860A7
:1006B00010BD0000001002400000FFF8FFFFF6FE32
:1006C00008ED00E010B540F225511D4800F03EF85D
:1006D00010B31B4800F064F8C4B21A48008800F454
:1006E0000040C8B91748008800F4804060B10A2C67
:1006F00003D000201349088020E01248008840F40D
:1007000000401049088019E00D2C06D10D480088E2
:1007100040F480400B49088010E00A480088C0F38C
:100720000D0009490C5407480088401C0549088001
:1007300008460088C72801DD0020088010BD0000A1
:10074000003801401C0000202000002070B5024647
:10075000002400230025002040F66A16B14200D193
:1007600000BFC1F3421501F01F03012606FA03F38F
:10077000012D02D19689334006E0022D02D1168A5E
:10078000334001E0968A33400C12012606FA04F445
:100790001688344013B10CB1012000E0002070BD78
:1007A00001468888C0F30800704700BFFEE7014695
:1007B00000BF704710B56FF00400FFF73DFF0A4817
:1007C00000680A49B0FBF1F0094908700846007852
:1007D00000EB4001C1EBC0104FF6FF7101EAC00011
:1007E0000449088010BD00000000002000127A00BB
:1007F00014000020160000200146114A12884A43C6
:100800004FF0E0235A6100229A611A46126942F0C1
:1008100001021A6100BF4FF0E022106900F00102EE
:100820001AB100F48032002AF5D04FF0E0221269AC
:1008300022F001024FF0E0231A6100229A61704712
:100840001600002008B500200090FFF7B3FFFFF767
:1008500011FDFFF73FFEFFF7C3FD01201D490860B2
:100860001D49C1F8940100201A490C3108602FE09D
:100870000020FFF7D3FD00909DF8000028B39DF8FD
:100880000000012817D002280CD003281CD11148E1
:100890000C30006808B9012000E000200D490C313F
:1008A000086011E00D48006808B9012000E0002050
:1008B0000A49086008E00748006808B9012000E01C
:1008C00000200449086000BF02E00A20FFF794FFFF
:1008D000CEE700009481214200002342940123428C
:1008E0000009000800000020200000006C01000842
:1008F00020090008200000202807000088010008C7
:1009000000A24A04000000000000000001020304ED
:1009100006070809000000000000000000000100B8
:04000005080001CD21
:00000001FF
